:020000040800F2
:1000000000500020510500089505000895050008DE
:1000100095050008950500089505000800000000FA
:10002000000000000000000000000000950500082E
:10003000950500080000000095050008ED02000885
:100040009505000895050008950500089505000828
:100050009505000895050008950500089505000818
:100060009505000895050008950500089505000808
:1000700095050008950500089505000895050008F8
:1000800095050008950500089505000895050008E8
:1000900095050008950500089505000895050008D8
:1000A00095050008950500089505000895050008C8
:1000B00095050008950500089505000895050008B8
:1000C00095050008950500089505000895050008A8
:1000D0009505000895050008950500089505000898
:1000E0009505000895050008950500089505000888
:1000F0009505000895050008950500089505000878
:100100009505000895050008950500089505000867
:100110009505000895050008950500089505000857
:100120009505000895050008950500089505000847
:1001300000000000000000000000000000000000BF
:1001400000000000000000000000000000000000AF
:10015000000000000000000000000000000000009F
:10016000000000000000000000000000000000008F
:10017000000000000000000000000000000000007F
:10018000000000000000000000000000000000006F
:10019000000000000000000000000000000000005F
:1001A000000000000000000000000000000000004F
:1001B000000000000000000000000000000000003F
:1001C000000000000000000000000000000000002F
:1001D000000000000000000000000000000000001F
:0401E0005FF8E0F1F3
:1001E40010B5054C237833B9044B13B10448AFF36D
:1001F40000800123237010BD1000002000000000C7
:10020400AC08000808B5034B1BB103490348AFF31E
:10021400008008BD0000000014000020AC080008A5
:10022400034613F8012B002AFBD1181A0138704732
:1002340000207047002070470FB404B07047704727
:10024400014B1868704700BF2C000020F8B5074622
:100254000E4615460B4B984734200B4B9847002409
:1002640000E00134AC4207D2315DE019074B9847F6
:100274000428F6D0002400E00124054B98472046CA
:10028400F8BD00BF7104000899040008FD040008CB
:100294008904000808B5034B9847034B984700208E
:1002A40008BD00BF71040008890400080B4B1B68DB
:1002B4000B4AA2FB03239B09013BB3F1807F0BD2C2
:1002C4004FF0E0225361074BF02183F82310002301
:1002D400936107231361704700BFFDE7000000200E
:1002E400D34D621000ED00E0024A1368013313603D
:1002F400704700BF2C00002000B585B0084B98471C
:10030400084B0293084B0193084B0093084B094A8E
:1003140009490A480A4CA0470A4B9847FCE700BF22
:10032400B1020008990200085102000845020008C1
:10033400430200083D0200083902000835020008A3
:10034400150600088906000882B000230193009373
:100354002C4A136843F4803313602A4B1B6803F45C
:1003640000330093019B01330193009B1BB9019B54
:10037400B3F5A06FF1D1234B1B6813F4003F06D0F3
:1003840001230093009B012B04D002B0704700238B
:100394000093F7E71C4B1A6842F010021A601A68BF
:1003A40022F007021A601A6842F002021A60A3F5EA
:1003B40080535A685A605A685A605A6842F4806294
:1003C4005A605A6822F47C125A605A6842F4E8125D
:1003D4005A601A6842F080721A600A4B1B6813F064
:1003E400007FFAD0074B5A6822F003025A605A6819
:1003F40042F002025A60034B5B6803F00C03082BC3
:10040400F9D1C2E7001002400020024008B5014BB8
:10041400984708BD4D03000808B5104B1A6842F010
:1004240001021A6059680E4A0A405A601A6822F09A
:10043400847222F480321A601A6822F480221A60CC
:100444005A6822F4FE025A604FF41F029A60054B68
:100454009847054B4FF000629A6008BD00100240B7
:100464000000FFF81104000800ED00E0034B044A0B
:100474005A6002F188325A60704700BF002002407F
:1004840023016745024A136943F0800313617047EF
:1004940000200240014BD860704700BF002002409A
:1004A4000B4BDB6813F0010F0BD1094BDB6813F026
:1004B400040F08D1064BDB6813F0100F05D003209E
:1004C400704701207047022070470420704700BF26
:1004D4000020024010B50446064B984702E0054B45
:1004E4009847013C012801D1002CF8D104B110BD7A
:1004F4000520FCE7A504000838B505460C464FF472
:1005040000500F4B9847042800D038BD0D4B0E4ABD
:100514009A6002F188329A601A6942F010021A61F4
:10052400A1B229804FF40050054B98470528ECD020
:10053400044A136923F01003DB04DB0C1361E4E7C2
:10054400D90400080020024023016745002103E08C
:100554000A4B5B584350043109480A4B42189A42EB
:10056400F6D3094A02E0002342F8043B074B9A42BF
:10057400F9D3FFF751FFFFF7BFFE7047E40C000803
:100584000000002010000020100000209808002027
:10059400FEE700001B4B1A681B4B9A422FD110B583
:1005A400184B586800230AE04FF0FF32174941F80E
:1005B400232001F5807141F823200133DBB2072B9E
:1005C400F2D9002308E09A0002F1604202F5644285
:1005D400002111600133DBB2EF2BF4D94FF0E0229C
:1005E40000231361936107490C68C2F8084D83F333
:1005F40014880B6883F308888047002010BD00200E
:10060400704700BF004400080050002080E100E073
:10061400F0B593B01D46189E164CA2602060616030
:1006240055238DF80430144B1F683846134B9847F4
:10063400C2B28DF80520394602A8114B9847E660EE
:10064400199B23611A9B6361B04700F57A70A0611E
:10065400636801A8984750238DF8043001238DF86E
:1006640005308DF80830636801A89847A84713B08F
:10067400F0BD00BF38080020040000202502000857
:100684008108000838B56E4CE3689847A36998421E
:1006940003D96C4B1B78002B32D1694B1B686A4819
:1006A400984700284CD0684B1B78502B37D0542BDC
:1006B4004CD0552B57D0512B62D0522B6BD0A3F179
:1006C4005602D2B21F2A71D8563B5F4D05F1040E73
:1006D4005E4A02EB831C443574460FCCCCF8000010
:1006E400CCF80410CCF80820CCF80C30A6460CF159
:1006F400100CAC42F0D1544B01221A715A7018E01C
:10070400534B9847504B187150221A7001225A705B
:100714006268184690474B4B00221A70BDE74A4B5B
:100724001B79022B0DD0484B01221A7150211970EC
:100734005A70444B00221A70414B5B6842489847F8
:1007440038BD434B9847404B1871ECE7414B1C684C
:100754002046414B9847C2B23B4842702146043080
:100764003E4B9847E5E73E4B1C6820463A4B98477A
:10077400C2B23548427021460430384B9847D8E716
:100784002F4B5B69374A1168374898472E4B1871CD
:1007940001225A70CDE72C4B5968344A116099688C
:1007A400334A116001221A715A70C2E7532B06D0E2
:1007B400762BBED1244B01225A701A71B9E7224B11
:1007C4005D6801225A7000244FF0FF320BE0100ED6
:1007D400284951F8201081EA022201339BB2032BED
:1007E400F5D90134A4B2B4F5006F04D2174B1B5DE4
:1007F4005A400023F3E71E4B1B6893420ED0124B62
:1008040000221A714FF40062002110481A4B9847D5
:100814000023174A1360154A13608AE7134B1868BC
:10082400A84203D0084B00221A71EBE7044B1B6962
:100834004FF4006205499847034B1871E2E700BF83
:100844003808002008000020540800203800002048
:10085400990500080C000020250200088108000802
:1008640004000020003C0008004400083000002080
:1008740034000020DC0800089D0800080A44914266
:1008840000F1FF3300D1704710B511F8014B9142CC
:1008940003F8014FF9D110BD03460244934200D13D
:1008A400704703F8011BF9E7F8B500BFF8BC08BCB2
:1008B4009E467047F8B500BFF8BC08BC9E4670471A
:1008C40031343A31353A3036000000004175672042
:1008D400313920323032340000000000B71DC10429
:1008E4006E3B8209D926430DDC7604136B6BC51766
:1008F400B24D861A0550471EB8ED08260FF0C922DE
:10090400D6D68A2F61CB4B2B649B0C35D386CD3145
:100914000AA08E3CBDBD4F3870DB114CC7C6D04811
:100924001EE09345A9FD5241ACAD155F1BB0D45BED
:10093400C2969756758B5652C836196A7F2BD86E55
:10094400A60D9B6311105A6714401D79A35DDC7DCD
:100954007A7B9F70CD665E74E0B6239857ABE29CB9
:100964008E8DA191399060953CC0278B8BDDE68FED
:1009740052FBA582E5E66486585B2BBEEF46EABAD5
:100984003660A9B7817D68B3842D2FAD3330EEA9CD
:10099400EA16ADA45D0B6CA0906D32D42770F3D031
:1009A400FE56B0DD494B71D94C1B36C7FB06F7C365
:1009B4002220B4CE953D75CA28803AF29F9DFBF65D
:1009C40046BBB8FBF1A679FFF4F63EE143EBFFE545
:1009D4009ACDBCE82DD07DEC77708634C06D47305D
:1009E400194B043DAE56C539AB0682271C1B432365
:1009F400C53D002E7220C12ACF9D8E1278804F16DD
:100A0400A1A60C1B16BBCD1F13EB8A01A4F64B0544
:100A14007DD00808CACDC90C07AB9778B0B6567C10
:100A240069901571DE8DD475DBDD936B6CC0526FEC
:100A3400B5E6116202FBD066BF469F5E085B5E5A54
:100A4400D17D1D576660DC5363309B4DD42D5A49CC
:100A54000D0B1944BA16D84097C6A5AC20DB64A880
:100A6400F9FD27A54EE0E6A14BB0A1BFFCAD60BBEC
:100A7400258B23B69296E2B22F2BAD8A98366C8ED4
:100A840041102F83F60DEE87F35DA9994440689DCC
:100A94009D662B902A7BEA94E71DB4E0500075E430
:100AA400892636E93E3BF7ED3B6BB0F38C7671F764
:100AB400555032FAE24DF3FE5FF0BCC6E8ED7DC25C
:100AC40031CB3ECF86D6FFCB8386B8D5349B79D144
:100AD400EDBD3ADC5AA0FBD8EEE00C6959FDCD6DB2
:100AE40080DB8E6037C64F643296087A858BC97E68
:100AF4005CAD8A73EBB04B77560D044FE110C54BD8
:100B0400383686468F2B47428A7B005C3D66C15847
:100B1400E4408255535D43519E3B1D252926DC212B
:100B2400F0009F2C471D5E28424D1936F550D832EF
:100B34002C769B3F9B6B5A3B26D6150391CBD4074F
:100B440048ED970AFFF0560EFAA011104DBDD014CF
:100B5400949B93192386521D0E562FF1B94BEEF533
:100B6400606DADF8D7706CFCD2202BE2653DEAE6EF
:100B7400BC1BA9EB0B0668EFB6BB27D701A6E6D3CF
:100B8400D880A5DE6F9D64DA6ACD23C4DDD0E2C0CF
:100B940004F6A1CDB3EB60C97E8D3EBDC990FFB90B
:100BA40010B6BCB4A7AB7DB0A2FB3AAE15E6FBAA67
:100BB400CCC0B8A77BDD79A3C660369B717DF79F57
:100BC400A85BB4921F4675961A163288AD0BF38C47
:100BD400742DB081C330718599908A5D2E8D4B59E7
:100BE400F7AB085440B6C95045E68E4EF2FB4F4A67
:100BF4002BDD0C479CC0CD43217D827B9660437FD7
:100C04004F460072F85BC176FD0B86684A16476C46
:100C140093300461242DC565E94B9B115E565A152A
:100C240087701918306DD81C353D9F0282205E06EE
:100C34005B061D0BEC1BDC0F51A69337E6BB52334E
:100C44003F9D113E8880D03A8DD097243ACD5620CE
:100C5400E3EB152D54F6D4297926A9C5CE3B68C1FA
:100C6400171D2BCCA000EAC8A550ADD6124D6CD2EE
:100C7400CB6B2FDF7C76EEDBC1CBA1E376D660E7CE
:100C8400AFF023EA18EDE2EE1DBDA5F0AAA064F4CE
:100C9400738627F9C49BE6FD09FDB889BEE0798D0A
:100CA40067C63A80D0DBFB84D58BBC9A62967D9E66
:100CB400BBB03E930CADFF97B110B0AF060D71AB56
:100CC400DF2B32A66836F3A26D66B4BCDA7B75B846
:080CD400035D36B5B440F7B131
:040CDC000902000801
:040CE000E501000822
:100CE40000A24A04C408000801000000D00800085B
:103C0000E40C00000000000856422E3030302E3008
:103C100030302E3030304100000000004175672008
:103C2000313920323032342D31343A31353A303670
:0E3C300000000000000000000000CCCCCCCC56
:040000050800055199
:00000001FF
