:020000040800F2
:10400000782100000040000856412E3030302E301C
:1040100030302E30303041000000000053657020F9
:10402000203220323032342D31383A30383A35347B
:0E40300000000000000000000000CCCCCCCC52
:10440000005000201D500008615000086150000855
:104410006150000861500008615000080000000071
:1044200000000000000000000000000061500008D3
:104430006150000800000000615000086150000851
:104440006150000861500008615000086150000888
:104450006150000861500008615000086150000878
:104460006150000861500008615000086150000868
:104470006150000861500008615000086150000858
:1044800061500008B15E00086150000861500008EA
:104490006150000861500008615000086150000838
:1044A0006150000861500008615000086150000828
:1044B0006150000861500008615000086150000818
:1044C0006150000861500008615000086150000808
:1044D00061500008615000086150000861500008F8
:1044E00061500008615000086150000861500008E8
:1044F00061500008615000086150000861500008D8
:1045000061500008615000086150000861500008C7
:1045100061500008615000086150000861500008B7
:1045200061500008615000086150000861500008A7
:10453000000000000000000000000000000000007B
:10454000000000000000000000000000000000006B
:10455000000000000000000000000000000000005B
:10456000000000000000000000000000000000004B
:10457000000000000000000000000000000000003B
:10458000000000000000000000000000000000002B
:10459000000000000000000000000000000000001B
:1045A000000000000000000000000000000000000B
:1045B00000000000000000000000000000000000FB
:1045C00000000000000000000000000000000000EB
:1045D00000000000000000000000000000000000DB
:0445E0005FF8E0F1AF
:1045E40010B5054C237833B9044B13B10448AFF329
:1045F40000800123237010BD3C0000200000000057
:10460400FC62000808B5034B1BB103490348AFF330
:10461400008008BD0000000040000020FC6200088B
:10462400034613F8012B002AFBD1181A01387047EE
:104634000FB404B0704770470C4B1B780BB90020C3
:10464400704710B504460A4900200A4B98470A49A6
:104654000B7823704A7862700431201D074B984709
:10466400024B00221A70012010BD00BF9C000020E4
:1046740018630008D15A000858000020D1620008CD
:1046840008B50278084B1A7042785A7082789A708A
:10469400C278DA704278011D181D044B9847044B08
:1046A40001221A7008BD00BF58000020D162000822
:1046B4009C00002010B50378064C23704278627089
:1046C4000123A370011D201D034B98472046034B73
:1046D400984710BDA0000020D16200088D54000846
:1046E40000B599B00F4B98470F4B984700230F4ADA
:1046F4000F4901A80F4CA0470F4B104A104911480D
:10470400114CA047114B9847114B98470720114B68
:1047140098470720104B9847104B9847104B9847E1
:10472400F4E700BFC95C000839530008195F0008AA
:10473400D15E0008755300083B4600083546000862
:10474400B94600083D460008B55100085548000820
:104754002D4A0008C5490008994B00081552000865
:10476400B153000838B50446436801209847A3684C
:104774000120984723689847E3689847054658B14D
:1047840063680020984723689847E368984728B9E6
:10479400A368984723689847284638BD0025FBE757
:1047A40010B50446836800209847236898476368D7
:1047B4000020984723689847A368012098472368F6
:1047C40098476368012098472368984710BD38B517
:1047D400044683680020984723689847636801204B
:1047E400984723689847A368012098472368984707
:1047F400E368984728B90125A3680020984728460C
:1048040038BD0025F8E770B504460D4608230CE0D2
:104814006368002098476D00EDB223689847A36849
:10482400012098472368984733465A1ED6B25BB195
:10483400A368002098472368984715F0800FE7D0B5
:10484400636801209847E6E7A3680020984770BD95
:1048540008B5044B98474FF400410348034B98476D
:1048640008BD00BF3D4C000800080140814E00080F
:104874002DE9F04180460F460C4C20460C4B9847DE
:10488400C62120460B4EB04720460B4DA847414653
:104894002046B0472046A84739462046B047204620
:1048A400A8472046054B9847BDE8F081000000204A
:1048B400694700080B480008D3470008A5470008CB
:1048C40010B519210120064CA04727210220A0473A
:1048D40000210520A04700210720A04710BD00BFEC
:1048E4007548000810B519210120064CA04727215E
:1048F4000220A04700210520A04700210720A0474F
:1049040010BD00BF7548000810B519210120064CE0
:10491400A04727210220A0473F210520A0470021CE
:104924000720A04710BD00BF7548000810B5192125
:104934000120064CA04727210220A0477F21052003
:10494400A04700210720A04710BD00BF75480008FC
:1049540010B519210120064CA04727210220A047A9
:104964007F210520A04701210720A04710BD00BFDB
:104974007548000810B519210120064CA0472721CD
:104984000220A0477F210520A04703210720A0473C
:1049940010BD00BF7548000810B50D210120034C5F
:1049A400A04700210320A04710BD00BF75480008A0
:1049B40008B50D210120014B984708BD7548000832
:1049C40008B507281DD8DFE800F004070A0D101306
:1049D40016190D4B984708BD0C4B9847FBE70C4B39
:1049E4009847F8E70B4B9847F5E70B4B9847F2E7E6
:1049F4000A4B9847EFE70A4B9847ECE7094B98476F
:104A0400E9E7084B9847E6E7C5480008E948000885
:104A14000D49000831490008554900087949000842
:104A24009D490008B549000808B5034B984708217B
:104A34000248034B984708BD114D0008000C014083
:104A4400814E00082DE9F04180460F460C4C20466B
:104A54000C4B9847C62120460B4EB04720460B4DC1
:104A6400A84741462046B0472046A8473946204635
:104A7400B0472046A8472046054B9847BDE8F0813B
:104A840010000020694700080B480008D3470008BD
:104A9400A547000810B519210120064CA04727217D
:104AA4000220A04700210520A04700210720A0479D
:104AB40010BD00BF494A000810B519210120064C59
:104AC400A04727210220A04700210520A04700215C
:104AD4000720A04710BD00BF494A000810B519219E
:104AE4000120064CA04727210220A0473F21052092
:104AF400A04700210720A04710BD00BF494A000875
:104B040010B519210120064CA04727210220A047F7
:104B14007F210520A04700210720A04710BD00BF2A
:104B2400494A000810B519210120064CA047272145
:104B34000220A0477F210520A04701210720A0478C
:104B440010BD00BF494A000810B519210120064CC8
:104B5400A04727210220A0477F210520A047032149
:104B64000720A04710BD00BF494A000810B50D2119
:104B74000120034CA04700210320A04710BD00BF23
:104B8400494A000808B50D210120014B984708BD8A
:104B9400494A000808B507281DD8DFE800F00407D3
:104BA4000A0D101316190D4B984708BD0C4B984766
:104BB400FBE70C4B9847F8E70B4B9847F5E70B4B93
:104BC4009847F2E70A4B9847EFE70A4B9847ECE718
:104BD400094B9847E9E7084B9847E6E7994A0008E4
:104BE400BD4A0008E14A0008054B0008294B0008AB
:104BF4004D4B0008714B0008894B000800EBC000C6
:104C0400C0004FF0E023586100229A6105221A6126
:104C14004FF0E0231B6913F4803FF9D04FF0E023F9
:104C240004221A617047000008B50A20014B984716
:104C340008BD00BF014C00082DE9F04182B00121FC
:104C440008201A4EB0474FF44053ADF804301423F3
:104C54008DF8073003258DF80650DFF8548001A93C
:104C64004046144CA0474FF40053ADF804301027CD
:104C74008DF807708DF8065001A94046A047012120
:104C84000420B0474FF40046ADF804608DF8077077
:104C94008DF80650084D01A92846A04731462846FC
:104CA400064B984702B0BDE8F08100BFE54F00080D
:104CB400000C0140C14D000800080140814E00086D
:104CC40008B502464FF400510148024B984708BD0D
:104CD400000C0140854E000808B502464FF480518F
:104CE4000148024B984708BD000C0140854E00085E
:104CF40008B54FF400510348034B9847003818BFD8
:104D0400012008BD000C0140734E000870B582B04C
:104D140001210920114B984701211148114B984753
:104D24004CF20803ADF8043010238DF80730032645
:104D34008DF806600C4D01A928460C4CA0474FF491
:104D44000043ADF8043014238DF807308DF8066065
:104D540001A92846A04702B070BD00BFE54F000876
:104D640000023000914E0008000C0140C14D0008C3
:104D740008B502464FF400410148024B984708BD6C
:104D8400000C0140854E000808B502464FF48041EE
:104D94000148024B984708BD000C0140854E0008AD
:104DA40008B54FF400410348034B9847003818BF37
:104DB400012008BD000C0140734E000830B5CB78CB
:104DC40003F00F02964613F0100F03D091F802E09F
:104DD4004EEA020E0B7803B30468002301E042613B
:104DE4000133072B18D801229A40B1F800C032EAE7
:104DF4000C05F5D14FEA830C0F2505FA0CF524EACE
:104E040005040EFA0CFC4CEA0404CD78282DE6D0F7
:104E1400482DE5D10261E3E704600B88FF2B25D917
:104E24004468002303E0CD78482D1CD00133072BC0
:104E34001BD803F1080C012202FA0CF2B1F800C0ED
:104E440032EA0C05F2D14FEA830C0F2505FA0CF572
:104E540024EA05040EFA0CFC4CEA0404CD78282D4F
:104E6400E1D14261DFE70261E0E7446030BD83687D
:104E7400194201D00120704700207047016170473A
:104E84000AB10161704741617047000010B5002804
:104E940016DB1C4B5B68C0F303421FFA80FE00F470
:104EA400401CBCF5401F0ED010F4801F1DD04FF0E5
:104EB400030C0CFA02F223EA020343F0706309E0E4
:104EC400104BDB69E7E723F070630E4C626822F055
:104ED4007062626021B1420D12010EFA02F21343B4
:104EE40000280BDB074A536010BD420D12010EFA75
:104EF40002F223EA020343F07063EBE7014AD36151
:104F0400F2E700BF0000014010B4294B5B6803F0D6
:104F14000C03042B2BD0082B2CD013B1254B03608E
:104F240001E0244B036022494B68C3F30313224C72
:104F3400E35CDAB20368D34043604A68C2F30222F6
:104F4400A25CD2B223FA02F282604A68C2F3C2229D
:104F5400A25CD2B2D340C3604A68C2F3813217491B
:104F64008A5CD2B2B3FBF2F3036110BC7047114BFD
:104F74000360D8E70E4A53685268C3F3834302338D
:104F840012F4803F04D10E4A02FB03F30360CAE724
:104F9400074A526812F4003F04D0094A02FB03F3A3
:104FA4000360C0E7034A02FB03F30360BBE700BFEF
:104FB4000010024000127A0024000020200000208B
:104FC40000093D0021B1054A5369184350617047F7
:104FD400024A536923EA00005061704700100240FE
:104FE40021B1054A9369184390617047024A936955
:104FF40023EA0000906170470010024021B1054A85
:10500400D3691843D0617047024AD36923EA000088
:10501400D061704700100240002103E00A4B5B5846
:105024004350043109480A4B42189A42F6D3094ABC
:1050340002E0002342F8043B074B9A42F9D300F004
:1050440077F8FFF74DFB70477865000800000020F3
:105054003C0000203C000020F0210020FEE700007E
:1050640082B00023019300932C4A136843F48033E5
:1050740013602A4B1B6803F400330093019B013334
:105084000193009B1BB9019BB3F5A06FF1D1234B96
:105094001B6813F4003F06D001230093009B012BEF
:1050A40004D002B0704700230093F7E71C4B1A6842
:1050B40042F010021A601A6822F007021A601A6895
:1050C40042F002021A60A3F580535A685A605A6883
:1050D4005A605A6842F480625A605A6822F47C1218
:1050E4005A605A6842F4E8125A601A6842F08072B0
:1050F4001A600A4B1B6813F0007FFAD0074B5A68FA
:1051040022F003025A605A6842F002025A60034BCA
:105114005B6803F00C03082BF9D1C2E700100240CE
:105124000020024008B5014B984708BD65500008AF
:1051340008B5104B1A6842F001021A6059680E4A09
:105144000A405A601A6822F0847222F480321A608B
:105154001A6822F480221A605A6822F4FE025A6005
:105164004FF41F029A60054B9847054B4FF00062BD
:105174009A6008BD001002400000FFF829510008A1
:1051840000ED00E0012383F31088BFF34F8F4FF04D
:10519400E021D1F80C2D02F4E062044B1343C1F872
:1051A4000C3DBFF34F8F00BFFDE700BF0400FA05BD
:1051B400F0B593B00D461E46114CA26020606160AC
:1051C40054238DF804300F4B1F6838460E4B984714
:1051D400C2B28DF80520394602A80C4B984701A8A5
:1051E400A84750238DF8043001238DF8053002239D
:1051F4008DF80830636801A89847B04713B0F0BD34
:10520400E40000203400002025460008D162000894
:1052140010B5154B1B681548984748B1134B1B78BC
:10522400502B06D0542B12D00F4B5B680F48984775
:1052340010BD0E4B1B79012B07D00C4B02221A71A7
:1052440050221A7001225A70EEE7094B9847094B15
:105254001C682046084B9847C2B204484270214655
:105264000430064B9847DFE7E4000020F0000020FC
:10527400895100083400002025460008D162000846
:105284000023FF2B16D09C460B4A02EBC302127973
:105294008A4204D0FF2A06D00133DBB2F1E7064B81
:1052A40043F83C007047044B03EBCC02117143F804
:1052B4003C007047704700BF4001002001460023B6
:1052C400FF2B10D018460C4A02EBC30212798A4213
:1052D40004D0FF2A09D00133DBB2F1E7064B53F8BF
:1052E400300020B170470020FBE70020F9E70129D6
:1052F400F8D1024B1868F5E7400100203401002082
:10530400F8B50646074C084D2B46224607490020AF
:10531400074FB84703E054F8043B30469847AC4283
:10532400F9DBF8BD1463000818630008346300084F
:10533400D15A0008002305E00B4A002142F823104B
:105344000133DBB2022BF7D9002309E0074A00211D
:1053540042F8331002EBC302FF2111710133DBB2B7
:10536400FF2BF3D1704700BF34010020400100201F
:1053740008B5016042608360002301E00133DBB2C1
:10538400022B0CD81946074A52F82320002AF5D1DB
:10539400044B43F82100044B9847012000E000200F
:1053A40008BD00BF34010020395500082DE9F04143
:1053B40092B0002746E001A82A4B98472A490020CA
:1053C4002A4B98470134E4B2A3B2AB4238D201AAC3
:1053D400274B195D274B53F82600274B9847002885
:1053E400F0D09DF807100529ECD0224B53F8260085
:1053F400224B98479DF806000528DCD0FF2807D0EB
:105404001F4B984701AA9DF807101E4B9847D9E7F0
:1054140001A8144B98474FF0000803E008F1010875
:105424005FFA88F8B8F1020FCCD84745F6D001AA44
:105434009DF807100F4B53F82800124B9847EDE7DF
:105444000137FFB23E460B4B53F8273033B11A688D
:1054540099680748904705460024B5E712B0BDE8AF
:10546400F08100BF055300083C630008D15A0008CE
:1054740038090020340100205555000885520008E1
:10548400C1520008D554000838B505468078FF2875
:105494000ED1002405E02A4605210A4B9847013421
:1054A400E4B2094B53F824000028F4D1012038BD9C
:1054B400064B98472A460521024B98470028F6D008
:1054C4000120F4E7D554000834010020C15200083B
:1054D40048B370B592B013460546AF228DF800204C
:1054E40002228DF801208DF803101A788DF805201A
:1054F4009A788DF802205C788DF804400DF1060648
:105504002246191D3046094B9847A11D6846084B91
:10551400984730536B689DF80410AA6808316846B0
:10552400984712B070BD0020704700BFD1620008D8
:105534008156000810B50446482200210C30034B64
:105544009847002384F8543010BD00BFED62000872
:10555400F8B50446154690F85430082B00F28280C2
:10556400DFE803F0050F1B21273240525900AF2911
:1055740001D0002016E00173012380F8543000208C
:1055840010E0022903D0002084F854000AE041739B
:10559400022380F85430002004E08173032380F850
:1055A40054300020F8BDC173042380F85430002027
:1055B400F8E70174052380F8543000F11203836581
:1055C40080F855100020EDE7417490F8553023B170
:1055D400062380F854300020E4E7072380F8543091
:1055E4000020DFE7836D197090F85530013BDBB282
:1055F40080F85530826D01328265002B36D1072345
:1056040080F854300020CDE780F85210082380F849
:1056140054300020C6E780F85310B0F8527000F1FF
:105624000C06017C06313046114B9847874209D05D
:105634004822002130460F4B98470020002384F86D
:105644005430AFE7227C04F11201281D0A4B98471D
:10565400637C2B70237C6B70A37BAB70E37BEB7060
:105664000120EBE7002084F854009BE7002099E731
:1056740081560008ED620008D162000884460023C8
:105684004FF6FF708B420FD210B41CF8032082EA4D
:105694001022064C34F9122082EA002080B2013331
:1056A4008B42F2D310BC7047704700BF40630008C0
:1056B40010B504468268531C4068834205D82068AC
:1056C4008154A360E3680133E360A26863689A428B
:1056D40000D010BD21682069054B9847A368984203
:1056E40003D04FF0FF33E360F3E70023A360F0E758
:1056F4008D5C00082DE9F84F81460F4615461E467D
:10570400DDF828A00B9A0B464FF0010803E0B3FB29
:10571400F5F308F10108AB42F9D2B04500D2B04626
:1057240012F0010B18D1BAF1000F15D012F0020FCC
:1057340002D0BEB1202400E02024BAF1000F0BD027
:10574400C24509D90AF1FF3A21464846204B9847F9
:10575400D9F80C30002BF0DAD9F80C30002B25DB0B
:10576400012404E03024E8E7013E05FB04F4012EA3
:10577400FAD8B7FBF4F39D42F7D900E01C46B7FB17
:10578400F4F304FB1377134AD15C4846104B984753
:10579400D9F80C30002B03DBB4FBF5F3AC42EDD2AB
:1057A400BBF1000F02D0BAF1000F01D1BDE8F88FB0
:1057B400BAF1000FFAD0C245F8D90AF1FF3A202114
:1057C4004846034B9847D9F80C30002BF0DAEDE744
:1057D400B5560008406500082DE9F04782B0074639
:1057E4008846154699460A9EDDF82CA081EAE17C9C
:1057F400ACEBE17C012402E09CFBF5FC0134654543
:10580400FADD4C4500D24C4636B1B8F1000F02DB4C
:105814001AF0040F00D0013E1AF0020F02D0B9F1C1
:10582400000F03D01AF0010F00D1AEB9FB68002BB2
:105834000FDBB8F1000F1CDB1AF0040F20D1FB685A
:10584400002B06DB0AF00303022B1ED0FB68002B9F
:105854002DDA02B0BDE8F087002EE7D0A642E5D9E4
:10586400013E20213846174B9847FB68002BF3DA9A
:10587400DCE7C8F100082D213846124B9847DEE7D3
:105884002B2138460F4B9847D9E7B9F1000FDDD1EA
:10589400002EDBD0002ED9D0A642D7D9013E30212C
:1058A4003846084B9847FB68002BF3DACEE7CDF86F
:1058B40004A000964B462A4641463846024CA0476F
:1058C400C7E700BFB5560008F9560008F0B599B00F
:1058D40006460C46154603AB13934023149300234A
:1058E4001593179016938AE00020012211E040F0EE
:1058F400010001340CE040F00200013408E040F003
:105904000400013404E040F00800013400E0002207
:1059140012B32378233B0D2BF9D801A151F823F0BE
:105924000B590008135900081359000813590008AB
:105934001359000813590008135900081359000893
:105944000359000813590008F358000813590008B4
:1059540013590008FB5800082378A3F13001C9B299
:10596400092907D8013402EB820203EB4203A3F1B5
:105974003002F1E72E2B02D00023217813E001340A
:10598400002305E0013403EB830301EB4303303BC5
:105994002178A1F1300C5FFA8CFCBCF1090FF1D92C
:1059A400EBE714F8011F6C29FBD06829F9D02529ED
:1059B4006DD020D378291ED858291CD358392029D2
:1059C40019D8DFE801F03D18181818181818181815
:1059D40018112718181818181818181818185718FC
:1059E4001848183218183D002B681A1D2A601978B7
:1059F40013A8324B98470134169B002B4CDB14F848
:105A0400011B002948D025293FF46EAF13A82B4B66
:105A14009847F1E729680F1D2F60096801900092EB
:105A24000A2213A8264FB847E5E729680F1D2F60FF
:105A34000968019000920A2213A8224FB847DAE7B6
:105A440029680F1D2F60096801900092102213A885
:105A54001C4FB847CFE72B681A1D2A601F6817F838
:105A6400011B0029C7D013A8144B9847169B002B81
:105A7400F5DAC0E72B681A1D2A6019680023019320
:105A840008230093102213A80E4FB847B3E725212B
:105A940013A80A4B9847AEE7169B002B05DD159A11
:105AA40032B9159A169B13441693169819B0F0BD83
:105AB40003A93046044B9847F3E700BFB5560008E6
:105AC400DD570008F95600088D5C00080EB400B5D7
:105AD40082B003AB53F8041B019301AA034B98470C
:105AE40002B05DF804EB03B0704700BFD158000862
:105AF400104A0323136153610F4991610F4BD36122
:105B04004FF480631362002393625362D36211667D
:105B14000B495166102191661367D366536706E0FB
:105B2400C3F10F020749895C024AD15401330F2B98
:105B3400F6D970473811002050650008F011002094
:105B4400E01100205C6500080369C268934204D830
:105B54008068801A0344581E70479B1A581E704769
:105B64002DE9F04704460F461646C568D0F808A04C
:105B7400AAEB0508904507D9406828440A4B984782
:105B84003544E560BDE8F087406842462844DFF8C4
:105B94001890C847A5EB0A0535442A4607EB0801C7
:105BA4006068C847E560EDE7D16200082DE9F84375
:105BB400064688461746C5684FF0000918E0641B7E
:105BC400621EB3685C1B944228BF1446BC4228BFC3
:105BD4003C4670682246414628440C4B9847A144F1
:105BE400A0443F1B2544B368AB4209D0F5604FB1D4
:105BF4003469A542E3D3B268641B1444621EE0E72F
:105C04000025F3E74846BDE8F88300BFD1620008E9
:105C1400F8B50F461646184B451C05EB450503EB36
:105C2400C50500EB400003EBC000C46A012C11D091
:105C3400022C1CD014B100242046F8BD28460F4B7A
:105C440098478642F8D83246394628460C4B98473E
:105C54003446F1E72846094B98473446864228BF24
:105C64000446224639462846054B9847E4E7284629
:105C7400044B98470446DFE7381100204D5B0008C9
:105C8400655B0008B15B0008F8B504460D4616468E
:105C9400094B1B786BB1EFF311874FF0200181F3AF
:105CA4001188324629462046044B984787F31188C9
:105CB400F8BD034B9847EEE738110020155C000847
:105CC400F55A00082DE9F04F93B0614F3846614C06
:105CD400A047614E3046A04701210420DFF87CA193
:105CE400D04718238DF847300424ADF844404FF0D2
:105CF40003098DF84690DFF8688111A94046594D93
:105D0400A84701212046D0478DF847400823ADF825
:105D140044308DF8469011A94046A84701214FF41C
:105D24000030514B98474FF4E1330D930024ADF804
:105D340040400C23ADF83E30ADF83C40ADF83A405D
:105D4400ADF83840494D0DA92846494B98474021A4
:105D54002846484B984740F226612846464B9847C8
:105D640001210846454B98470122C0212846444B4F
:105D740098474FF40063059304940C94414B0393A8
:105D840009944FF0800BCDF81CB020230A933E4BAE
:105D94000293089406944FF40059CDF82C9002A96C
:105DA4003846DFF8E880C04701213846384FB84705
:105DB40005944FF0100ACDF810A00C94354B0393C2
:105DC4000994CDF81CB00A942F4B029308940694BE
:105DD400CDF82C9002A93046C0470122022130465A
:105DE4002D4B984701213046B8478DF804A0012473
:105DF4008DF807408DF805408DF8064001A8DFF8BE
:105E04009C90C8474FF48010DFF89480C0474FF44B
:105E14008010244FB84721462846234EB04711230B
:105E24008DF804308DF807408DF8054002238DF875
:105E3400063001A8C8474FF08070C0474FF080700B
:105E4400B84721462846B04713B0BDE8F08F00BFDD
:105E54006C000240C95F000880000240E54F000862
:105E640000080140C14D00080150000800440040F2
:105E7400BD610008B9620008C1620008C94F00088A
:105E8400A1620008F015002004440040F1600008FD
:105E94002F610008F01D002049610008655F0008BB
:105EA40061610008A16100088562000808B54FF02F
:105EB4000070044B984700B908BD4FF00070024BC6
:105EC4009847F9E77D610008A16100080D4B1B6F3D
:105ED400C3F500630C4A1A440C4B1B689A420DD05C
:105EE40013F8012B0270094A1360094A934207D937
:105EF400064BA2F2FF721A6001207047002070471F
:105F04000120704700000240F015002038000020F6
:105F1400EF1D002070B50C460B4BD3F88430002BDA
:105F2400FAD1224601460948094B9847094D0021F8
:105F34002846094EB04721462846084B9847012178
:105F44002846B047012070BD00000240F01D00202B
:105F5400D1620008800002402F6100085D610008E2
:105F6400C378FBB1154BDA68D243C2F30222C2F103
:105F7400040C0F2323FA02F2417801FA0CF183781E
:105F840013400B431B010278DBB20D490A4482F82B
:105F94000033037803F01F005B090122824041F8BB
:105FA40023207047037803F01F015B0901228A4014
:105FB4002033034941F82320704700BF00ED00E07F
:105FC40000E100E0036823F001031B041B0C0360E1
:105FD4000023036043608360C360364B984221D042
:105FE400354B984224D0354B984227D0344B9842B5
:105FF4002AD0344B98422DD0334B984230D0334B77
:10600400984233D0324B984236D0324B984239D0F2
:10601400314B98423CD0314B98423FD0304B984260
:1060240042D070472F4A536843F00F0353607047C0
:106034002C4A536843F0F00353607047294A53686D
:1060440043F4706353607047264A536843F47043C3
:1060540053607047234A536843F470235360704776
:10606400204A536843F47003536070471D4A5368D1
:1060740043F07063536070471B4A536843F00F0347
:1060840053607047184A536843F0F00353607047F5
:10609400154A536843F4706353607047124A536857
:1060A40043F47043536070470F4A536843F47023BA
:1060B4005360B6E7080002401C0002403000024072
:1060C40044000240580002406C000240800002403C
:1060D400080402401C04024030040240440402400C
:1060E40058040240000002400004024010B4026858
:1060F40022F4FF4222F070028B680C6A23430C697D
:1061040023434C6923438C692343CC6923434C6A5E
:1061140023438C6A234313430360CB6843600B68B7
:1061240083604B68C36010BC704721B1036843F0BF
:10613400010303607047036823F001031B041B0C75
:10614400036070471AB1036819430160704703681C
:1061540023EA0101016070474160704710F0805FDD
:1061640002D0034B58607047024B5860704700BF21
:10617400000402400000024010F0805F05D0054B8F
:106184001B68034204D001207047034B1B68F8E7E7
:1061940000207047000402400000024010F0805FBD
:1061A40002D0034B58607047024B5860704700BFE1
:1061B400000402400000024030B587B004460D469A
:1061C400038A9BB2CA8823F440531343038283890E
:1061D4009BB2898828896A8901430A4323F4B0530E
:1061E40023F00C031343A381A38A9BB2AA8923F44B
:1061F40040731343A38201A81E4B98471E4B9C4235
:1062040024D0039BA28912F4004F21D103EB830312
:1062140003EB83032A689200B3FBF2F3174AA2FB51
:10622400031252091101642002FB1033A28912F4F3
:10623400004F16D11B013233104AA2FB0323C3F3D0
:1062440043130B439BB2238107B030BD049BD9E7B2
:1062540003EB830303EB83032A685200B3FBF2F3DB
:10626400DCE7DB003233054AA2FB0323C3F342130A
:106274000B43E7E70D4F0008003801401F85EB5141
:1062840029B183899BB243F4005383817047838986
:106294009BB223F400539BB28381704722B1838A5B
:1062A4009BB2194381827047838AC94389B21940DA
:1062B40081827047C94389B201807047090A01236A
:1062C4008B409BB2DB439BB2038070470A449142EC
:1062D40000F1FF3300D1704710B511F8014B914222
:1062E40003F8014FF9D110BD03460244934200D193
:1062F400704703F8011BF9E7F8B500BFF8BC08BC08
:106304009E467047F8B500BFF8BC08BC9E4670476F
:0463140085460008B2
:10631800330D0A0031383A30383A3534000000007D
:1063280053657020203220323032340025642C2509
:10633800640D0A00310D0A0000002110422063306C
:106348008440A550C660E770088129914AA16BB1C5
:106358008CC1ADD1CEE1EFF131121002733252226D
:10636800B5529442F772D662399318837BB35AA315
:10637800BDD39CC3FFF3DEE362244334200401143D
:10638800E664C774A44485546AA54BB52885099565
:10639800EEE5CFF5ACC58DD553367226111630060D
:1063A800D776F6669556B4465BB77AA719973887B5
:1063B800DFF7FEE79DD7BCC7C448E5588668A778CD
:1063C8004008611802282338CCC9EDD98EE9AFF905
:1063D800488969990AA92BB9F55AD44AB77A966AAD
:1063E800711A500A333A122AFDDBDCCBBFFB9EEB55
:1063F800799B588B3BBB1AABA66C877CE44CC55C7D
:10640800222C033C600C411CAEED8FFDECCDCDDDA4
:106418002AAD0BBD688D499D977EB66ED55EF44E4C
:10642800133E322E511E700E9FFFBEEFDDDFFCCFF4
:106438001BBF3AAF599F788F8891A981CAB1EBA148
:106448000CD12DC14EF16FE18010A100C230E320C4
:106458000450254046706760B9839893FBA3DAB36C
:106468003DC31CD37FE35EF3B1029012F322D23214
:106478003542145277625672EAB5CBA5A89589853C
:106488006EF54FE52CD50DC5E234C324A014810464
:106498006674476424540544DBA7FAB79987B8970C
:1064A8005FE77EF71DC73CD7D326F2369106B016B4
:1064B80057667676154634564CD96DC90EF92FE9CC
:1064C800C899E9898AB9ABA9445865480678276804
:1064D800C018E1088238A3287DCB5CDB3FEB1EFBAC
:1064E800F98BD89BBBAB9ABB754A545A376A167A54
:1064F800F10AD01AB32A923A2EFD0FED6CDD4DCD7C
:10650800AABD8BADE89DC98D267C076C645C454CA3
:10651800A23C832CE01CC10C1FEF3EFF5DCF7CDF4B
:106528009BAFBABFD98FF89F176E367E554E745EF3
:10653800932EB23ED10EF01E303132333435363719
:1065480038394142434445465465726D696E616C01
:106558000000000000000000000054545220524582
:08656800474745530000000005
:0465700009460008D0
:04657400E5450008F1
:106578002D4C0008C54C0008DD4C0008F54C0008FF
:106588002D4C0008754D00088D4D0008A54D0008DC
:1065980002040608000000000102030401020304CB
:0C65A8000607080928630008F015002011
:040000050800501D82
:00000001FF
