:020000040800F2
:100000000050002069080008AD080008AD0800088D
:10001000AD080008AD080008AD08000800000000A9
:10002000000000000000000000000000AD08000813
:10003000AD08000800000000AD080008D903000862
:10004000AD080008AD080008AD080008AD080008BC
:10005000AD080008AD080008AD080008AD080008AC
:10006000AD080008AD080008AD080008AD0800089C
:10007000AD080008AD080008AD080008AD0800088C
:10008000AD080008D9170008AD080008AD08000841
:10009000AD080008AD080008AD080008AD0800086C
:1000A000AD080008AD080008AD080008AD0800085C
:1000B000AD080008AD080008AD080008AD0800084C
:1000C000AD080008AD080008AD080008AD0800083C
:1000D000AD080008AD080008AD080008AD0800082C
:1000E000AD080008AD080008AD080008AD0800081C
:1000F000AD080008AD080008AD080008AD0800080C
:10010000AD080008AD080008AD080008AD080008FB
:10011000AD080008AD080008AD080008AD080008EB
:10012000AD080008AD080008AD080008AD080008DB
:1001300000000000000000000000000000000000BF
:1001400000000000000000000000000000000000AF
:10015000000000000000000000000000000000009F
:10016000000000000000000000000000000000008F
:10017000000000000000000000000000000000007F
:10018000000000000000000000000000000000006F
:10019000000000000000000000000000000000005F
:1001A000000000000000000000000000000000004F
:1001B000000000000000000000000000000000003F
:1001C000000000000000000000000000000000002F
:1001D000000000000000000000000000000000001F
:0401E0005FF8E0F1F3
:1001E40010B5054C237833B9044B13B10448AFF36D
:1001F40000800123237010BD2800002000000000AF
:10020400481C000808B5034B1BB103490348AFF36E
:10021400008008BD000000002C000020481C0008DD
:10022400034613F8012B002AFBD1181A0138704732
:100234000FB404B070477047014B1868704700BF93
:100244008C00002070470000F0B583B007460D46CF
:100254001646114B98473420104B9847002400E071
:100264000234B44212D22B1959782B5D24F00100C8
:1002740043EA012138440A4B98478DF807009DF85A
:100284000730DBB2042BEBD0002400E00124054B43
:100294009847204603B0F0BD95050008BD05000849
:1002A40065060008AD05000838B50546094B9847B2
:1002B40000240E2C07D805EB8420074B984704280C
:1002C40006D10134F5E70124044B9847204638BD94
:1002D4000024F9E7950500088D180008AD0500080D
:1002E40010B504460A4900200A4B984723780A4867
:1002F400037063784370A3788370E378C370627883
:10030400211D0430054B9847054B01221A7010BD7E
:10031400641C0008F9130008440000201D1C000898
:10032400880000200C4B1B780BB90020704710B5D7
:1003340004460A4900200A4B98470A490B7823705F
:100344004A7862700431201D074B9847024B002203
:100354001A70012010BD00BF88000020681C00082E
:10036400F9130008440000201D1C000810B5037890
:10037400064C2370427862700123A370011D201D76
:10038400034B98472046034B984710BD900000202C
:100394001D1C0008B50D00080B4B1B680B4AA2FB83
:1003A40003239B09013BB3F1807F0BD24FF0E02282
:1003B4005361074BF02183F8231000239361072333
:1003C4001361704700BFFDE700000020D34D6210A9
:1003D40000ED00E0024A136801331360704700BF68
:1003E4008C00002000B59DB00F4B98470F4B9847E9
:1003F4000F4B984700230F4A0F4905A80F4CA047FD
:100404000F4B03930F4B02930F4B01930F4B00932E
:100414000F4B104A10491148114CA047114B9847F3
:10042400114B9847FAE700BF9D030008F115000837
:10043400610C000841180008F91700089D0C000819
:1004440049020008AD0200084D0200083D02000800
:100454003B02000835020008710300082903000864
:100464002D090008A5090008D90C000882B0002352
:10047400019300932C4A136843F4803313602A4B8E
:100484001B6803F400330093019B01330193009B29
:100494001BB9019BB3F5A06FF1D1234B1B6813F477
:1004A400003F06D001230093009B012B04D002B02F
:1004B400704700230093F7E71C4B1A6842F01002C0
:1004C4001A601A6822F007021A601A6842F00202DF
:1004D4001A60A3F580535A685A605A685A605A6879
:1004E40042F480625A605A6822F47C125A605A6854
:1004F40042F4E8125A601A6842F080721A600A4B99
:100504001B6813F0007FFAD0074B5A6822F00302ED
:100514005A605A6842F002025A60034B5B6803F067
:100524000C03082BF9D1C2E700100240002002405E
:1005340008B5014B984708BD7104000808B5104B75
:100544001A6842F001021A6059680E4A0A405A6059
:100554001A6822F0847222F480321A601A6822F433
:1005640080221A605A6822F4FE025A604FF41F0275
:100574009A60054B9847054B4FF000629A6008BD9E
:10058400001002400000FFF83505000800ED00E00F
:10059400034B044A5A6002F188325A60704700BF24
:1005A4000020024023016745024A136943F0800397
:1005B4001361704700200240014BD860704700BFB0
:1005C400002002400B4BDB6813F0010F0BD1094BE9
:1005D400DB6813F0040F08D1064BDB6813F0100F2F
:1005E40005D0032070470120704702207047042083
:1005F400704700BF0020024010B50446064B9847E0
:1006040002E0054B9847013C012801D1002CF8D1A8
:1006140004B110BD0520FCE7C905000838B504463F
:100624004FF430200C4B9847042800D038BD0B4DB4
:100634002B6943F002032B616C612B6943F0400387
:100644002B614FF43020044B98472B6923F00203AD
:10065400DB04DB0C2B61E9E7FD0500080020024008
:1006640070B505460C464FF400500B4B98470428D0
:1006740000D070BD094E336943F0010333612C800F
:100684004FF40050044B9847336923F00103DB0413
:10069400DB0C3361EDE700BFFD05000800200240DC
:1006A40030B5CB7803F00F02964613F0100F03D049
:1006B40091F802E04EEA020E0B7803B304680023BB
:1006C40001E042610133072B18D801229A40B1F8A6
:1006D40000C032EA0C05F5D14FEA830C0F2505FA68
:1006E4000CF524EA05040EFA0CFC4CEA0404CD785B
:1006F400282DE6D0482DE5D10261E3E704600B889C
:10070400FF2B25D94468002303E0CD78482D1CD065
:100714000133072B1BD803F1080C012202FA0CF257
:10072400B1F800C032EA0C05F2D14FEA830C0F2570
:1007340005FA0CF524EA05040EFA0CFC4CEA040450
:10074400CD78282DE1D14261DFE70261E0E7446022
:1007540030BD000010B4294B5B6803F00C03042B7C
:100764002BD0082B2CD013B1254B036001E0244B74
:10077400036022494B68C3F30313224CE35CDAB2EF
:100784000368D34043604A68C2F30222A25CD2B237
:1007940023FA02F282604A68C2F3C222A25CD2B295
:1007A400D340C3604A68C2F3813217498A5CD2B22B
:1007B400B3FBF2F3036110BC7047114B0360D8E73D
:1007C4000E4A53685268C3F38343023312F4803FE2
:1007D40004D10E4A02FB03F30360CAE7074A5268D6
:1007E40012F4003F04D0094A02FB03F30360C0E79C
:1007F400034A02FB03F30360BBE700BF001002409F
:1008040000127A00080000200400002000093D00C6
:1008140021B1054A5369184350617047024A53692C
:1008240023EA0000506170470010024021B1054ADC
:100834009369184390617047024A936923EA000060
:10084400906170470010024021B1054AD3691843F2
:10085400D0617047024AD36923EA0000D06170472F
:1008640000100240002103E00A4B5B58435004315E
:1008740009480A4B42189A42F6D3094A02E0002377
:1008840042F8043B074B9A42F9D3FFF757FEFFF7B0
:10089400A9FD7047C822000800000020280000209D
:1008A40028000020FC290020FEE700001B4B1A68EA
:1008B4001B4B9A422FD110B5184B586800230AE0FD
:1008C4004FF0FF32174941F8232001F5807141F8B8
:1008D40023200133DBB2072BF2D9002308E09A006E
:1008E40002F1604202F56442002111600133DBB27F
:1008F400EF2BF4D94FF0E0220023136193610749F1
:100904000C68C2F8084D83F314880B6883F30888D5
:100914008047002010BD0020704700BF004400083D
:100924000050002080E100E0F0B593B01D46189E11
:10093400174CA2602060616055238DF80430154B7C
:100944001F683846144B9847C2B28DF805203946C3
:1009540002A8124B9847E660199B23611A9B6361B6
:100964001B9BE361B04700F57A70A061636801A83E
:10097400984750238DF8043001238DF805308DF805
:100984000830636801A89847A84713B0F0BD00BFBA
:10099400DC08002018000020250200081D1C0008A7
:1009A40038B5734CE3689847A369984203D9714BEF
:1009B4001B78002B32D16E4B1B686F489847002878
:1009C4004ED06D4B1B78502B39D0542B4ED0552B19
:1009D40059D0512B64D0522B75D0A3F15602D2B208
:1009E4001F2A7BD8563B644D05F1040E634A02EB83
:1009F400831C443574460FCCCCF80000CCF80410AA
:100A0400CCF80820CCF80C30A6460CF1100CAC4203
:100A1400F0D1594B01221A715A701AE0584B984779
:100A2400554B187150221A7001225A706268184688
:100A34009047504B00221A70E3699847BBE74E4B2E
:100A44001B79022B0DD04C4B01221A7150211970C5
:100A54005A70484B00221A70454B5B6846489847C9
:100A640038BD474B9847444B1871ECE7454B1C681D
:100A74002046454B9847C2B23F4842702146043055
:100A8400424B9847E5E7424B1C6820463E4B98474B
:100A9400C2B239484270214604303C4B9847D8E7EB
:100AA400354CE179A3791B0443EA0163617943EA94
:100AB400012321792E4A52691943364890472071FF
:100AC40001236370C5E72C4B5968334A1160996858
:100AD400324A116001221A715A70BAE7532B06D0B8
:100AE400762BB6D1244B01225A701A71B1E7224BEE
:100AF4005D6801225A7000244FF0FF320BE0100EA3
:100B0400274951F8201081EA022201339BB2032BBA
:100B1400F5D90134A4B2B4F5006F04D2174B1B5DB0
:100B24005A400023F3E71D4B1B6893420ED0124B2F
:100B340000221A714FF4006200211048194B9847A3
:100B44000023164A1360144A136082E7124B186894
:100B5400A84203D0084B00221A71EBE7044B1B692F
:100B64004FF4006205499847034B1871E2E700BF50
:100B7400DC0800201C000020FC080020DC00002011
:100B8400B108000820000020250200081D1C0008F0
:100B94001800002000400008D4000020D8000020E5
:100BA400841C0008391C00080023FF2B16D09C4627
:100BB4000B4A02EBC30212798A4204D0FF2A06D000
:100BC4000133DBB2F1E7064B43F83C007047044BBA
:100BD40003EBCC02117143F83C007047704700BF2F
:100BE4004C09002001460023FF2B10D018460C4A64
:100BF40002EBC30212798A4204D0FF2A09D00133DE
:100C0400DBB2F1E7064B53F8300020B17047002007
:100C1400FBE70020F9E70129F8D1024B1868F5E752
:100C24004C09002040090020F8B50646074C084D41
:100C34002B46224607490020074FB84703E054F8E3
:100C4400043B30469847AC42F9DBF8BD601C000811
:100C5400641C000884200008F9130008002305E040
:100C64000B4A002142F823100133DBB2022BF7D9DF
:100C7400002309E0074A002142F8331002EBC302C3
:100C8400FF2111710133DBB2FF2BF3D1704700BF99
:100C9400400900204C09002008B5016042608360CF
:100CA400002301E00133DBB2022B0CD81946074ABA
:100CB40052F82320002AF5D1044B43F82100044BB9
:100CC4009847012000E0002008BD00BF4009002033
:100CD400610E00082DE9F04192B0002746E001A81A
:100CE4002A4B98472A4900202A4B98470134E4B2FA
:100CF400A3B2AB4238D201AA274B195D274B53F854
:100D04002600274B98470028F0D09DF807100529A6
:100D1400ECD0224B53F82600224B98479DF806004E
:100D24000528DCD0FF2807D01F4B984701AA9DF85F
:100D340007101E4B9847D9E701A8144B98474FF06A
:100D4400000803E008F101085FFA88F8B8F1020F1F
:100D5400CCD84745F6D001AA9DF807100F4B53F89D
:100D64002800124B9847EDE70137FFB23E460B4B84
:100D740053F8273033B11A689968074890470546F5
:100D84000024B5E712B0BDE8F08100BF2D0C0008C7
:100D94008C200008F91300084411002040090020A9
:100DA4007D0E0008AD0B0008E90B0008FD0D0008DE
:100DB40038B505468078FF280ED1002405E02A4680
:100DC40005210A4B98470134E4B2094B53F8240037
:100DD4000028F4D1012038BD064B98472A46052146
:100DE400024B98470028F6D00120F4E7FD0D0008D7
:100DF40040090020E90B000848B370B592B01346CF
:100E04000546AF228DF8002002228DF801208DF8CE
:100E140003101A788DF805209A788DF802205C78F2
:100E24008DF804400DF106062246191D3046094B83
:100E34009847A11D6846084B984730536B689DF846
:100E44000410AA6808316846984712B070BD0020A3
:100E5400704700BF1D1C0008A90F000810B5044608
:100E6400482200210C30034B9847002384F8543067
:100E740010BD00BF391C0008F8B50446154690F8AB
:100E84005430082B00F28280DFE803F0050F1B21A9
:100E9400273240525900AF2901D0002016E00173D7
:100EA400012380F85430002010E0022903D00020F0
:100EB40084F854000AE04173022380F8543000207F
:100EC40004E08173032380F854300020F8BDC1731B
:100ED400042380F854300020F8E70174052380F8D7
:100EE400543000F11203836580F855100020EDE7BB
:100EF400417490F8553023B1062380F85430002013
:100F0400E4E7072380F854300020DFE7836D19708D
:100F140090F85530013BDBB280F85530826D0132D8
:100F24008265002B36D1072380F854300020CDE7AA
:100F340080F85210082380F854300020C6E780F867
:100F44005310B0F8527000F10C06017C06313046A3
:100F5400114B9847874209D04822002130460F4B55
:100F640098470020002384F85430AFE7227C04F132
:100F74001201281D0A4B9847637C2B70237C6B70ED
:100F8400A37BAB70E37BEB700120EBE7002084F8DC
:100F940054009BE7002099E7A90F0008391C0008BA
:100FA4001D1C0008844600234FF6FF708B420FD2AD
:100FB40010B41CF8032082EA1022064C34F91220E3
:100FC40082EA002080B201338B42F2D310BC704716
:100FD400704700BF9020000810B504468268531C77
:100FE4004068834205D820688154A360E3680133D4
:100FF400E360A26863689A4200D010BD216820694A
:10100400054B9847A368984203D04FF0FF33E36041
:10101400F3E70023A360F0E7B51500082DE9F84FC6
:1010240081460F4615461E46DDF828A00B9A0B464E
:101034004FF0010803E0B3FBF5F308F10108AB42FC
:10104400F9D2B04500D2B04612F0010B18D1BAF172
:10105400000F15D012F0020F02D0BEB1202400E020
:101064002024BAF1000F0BD0C24509D90AF1FF3A86
:1010740021464846204B9847D9F80C30002BF0DA2B
:10108400D9F80C30002B25DB012404E03024E8E7F8
:10109400013E05FB04F4012EFAD8B7FBF4F39D429C
:1010A400F7D900E01C46B7FBF4F304FB1377134AAB
:1010B400D15C4846104B9847D9F80C30002B03DB21
:1010C400B4FBF5F3AC42EDD2BBF1000F02D0BAF1A0
:1010D400000F01D1BDE8F88FBAF1000FFAD0C24574
:1010E400F8D90AF1FF3A20214846034B9847D9F82A
:1010F4000C30002BF0DAEDE7DD0F00089022000839
:101104002DE9F04782B007468846154699460A9E5F
:10111400DDF82CA081EAE17CACEBE17C012402E067
:101124009CFBF5FC01346545FADD4C4500D24C4688
:1011340036B1B8F1000F02DB1AF0040F00D0013E03
:101144001AF0020F02D0B9F1000F03D01AF0010F08
:1011540000D1AEB9FB68002B0FDBB8F1000F1CDB2C
:101164001AF0040F20D1FB68002B06DB0AF00303FE
:10117400022B1ED0FB68002B2DDA02B0BDE8F087ED
:10118400002EE7D0A642E5D9013E20213846174B70
:101194009847FB68002BF3DADCE7C8F100082D213F
:1011A4003846124B9847DEE72B2138460F4B9847B9
:1011B400D9E7B9F1000FDDD1002EDBD0002ED9D054
:1011C400A642D7D9013E30213846084B9847FB68E0
:1011D400002BF3DACEE7CDF804A000964B462A465E
:1011E40041463846024CA047C7E700BFDD0F000860
:1011F40021100008F0B599B006460C46154603AB1D
:1012040013934023149300231593179016938AE0A5
:101214000020012211E040F0010001340CE040F014
:101224000200013408E040F00400013404E040F01E
:101234000800013400E0002212B32378233B0D2B75
:10124400F9D801A151F823F0331200083B12000829
:101254003B1200083B1200083B1200083B12000836
:101264003B1200083B1200082B1200083B12000836
:101274001B1200083B1200083B120008231200084E
:101284002378A3F13001C9B2092907D8013402EB4C
:10129400820203EB4203A3F13002F1E72E2B02D0CA
:1012A4000023217813E00134002305E0013403EB2B
:1012B400830301EB4303303B2178A1F1300C5FFA47
:1012C4008CFCBCF1090FF1D9EBE714F8011F6C2970
:1012D400FBD06829F9D025296DD020D378291ED8D0
:1012E40058291CD35839202919D8DFE801F03D18B2
:1012F4001818181818181818181127181818181862
:1013040018181818181857181848183218183D00C3
:101314002B681A1D2A60197813A8324B9847013498
:10132400169B002B4CDB14F8011B002948D02529FF
:101334003FF46EAF13A82B4B9847F1E729680F1DB4
:101344002F600968019000920A2213A8264FB8471B
:10135400E5E729680F1D2F600968019000920A22B1
:1013640013A8224FB847DAE729680F1D2F600968D0
:1013740001900092102213A81C4FB847CFE72B68A6
:101384001A1D2A601F6817F8011B0029C7D013A86B
:10139400144B9847169B002BF5DAC0E72B681A1DEF
:1013A4002A6019680023019308230093102213A8CC
:1013B4000E4FB847B3E7252113A80A4B9847AEE769
:1013C400169B002B05DD159A32B9159A169B13440A
:1013D4001693169819B0F0BD03A93046044B9847EC
:1013E400F3E700BFDD0F0008051100082110000815
:1013F400B51500080EB400B582B003AB53F8041B56
:10140400019301AA034B984702B05DF804EB03B0C3
:10141400704700BFF9110008104A03231361536198
:101424000F4991610F4BD3614FF480631362002322
:1014340093625362D36211660B495166102191661F
:101444001367D366536706E0C3F10F020749895C4B
:10145400024AD15401330F2BF6D9704744190020A6
:10146400A0220008FC190020EC190020AC2200087E
:101474000369C268934204D88068801A0344581EE2
:1014840070479B1A581E70472DE9F04704460F46D3
:101494001646C568D0F808A0AAEB0508904507D9F8
:1014A400406828440A4B98473544E560BDE8F08716
:1014B400406842462844DFF81890C847A5EB0A055F
:1014C40035442A4607EB08016068C847E560EDE744
:1014D4001D1C00082DE9F843064688461746C568D2
:1014E4004FF0000918E0641B621EB3685C1B944251
:1014F40028BF1446BC4228BF3C4670682246414679
:1015040028440C4B9847A144A0443F1B2544B3688E
:10151400AB4209D0F5604FB13469A542E3D3B26858
:10152400641B1444621EE0E70025F3E74846BDE867
:10153400F88300BF1D1C0008F8B50F461646184B6B
:10154400451C05EB450503EBC50500EB400003EB2B
:10155400C000C46A012C11D0022C1CD014B1002488
:101564002046F8BD28460F4B98478642F8D83246A5
:10157400394628460C4B98473446F1E72846094B30
:1015840098473446864228BF0446224639462846B0
:10159400054B9847E4E72846044B98470446DFE7A1
:1015A40044190020751400088D140008D91400088B
:1015B400F8B504460D461646094B1B786BB1EFF39C
:1015C40011874FF0200181F31188324629462046C5
:1015D400044B984787F31188F8BD034B9847EEE70F
:1015E400441900203D1500081D1400082DE9F04F92
:1015F40093B0614F3846614CA047614E3046A047D6
:1016040001210420DFF87CA1D04718238DF847304E
:101614000424ADF844404FF003098DF84690DFF8F8
:10162400688111A94046594DA84701212046D04759
:101634008DF847400823ADF844308DF8469011A941
:101644004046A84701214FF40030514B98474FF4CE
:10165400E1330D930024ADF840400C23ADF83E3047
:10166400ADF83C40ADF83A40ADF83840494D0DA9CD
:101674002846494B984740212846484B984740F212
:1016840026612846464B984701210846454B984712
:101694000122C0212846444B98474FF40063059328
:1016A40004940C94414B039309944FF0800BCDF8B0
:1016B4001CB020230A933E4B0293089406944FF4E3
:1016C4000059CDF82C9002A93846DFF8E880C047CD
:1016D40001213846384FB84705944FF0100ACDF829
:1016E40010A00C94354B03930994CDF81CB00A94C4
:1016F4002F4B029308940694CDF82C9002A93046FF
:10170400C0470122022130462D4B98470121304623
:10171400B8478DF804A001248DF807408DF80540E2
:101724008DF8064001A8DFF89C90C8474FF480105C
:10173400DFF89480C0474FF48010244FB847214607
:101744002846234EB04711238DF804308DF8074006
:101754008DF8054002238DF8063001A8C8474FF0E4
:101764008070C0474FF08070B84721462846B04784
:1017740013B0BDE8F08F00BF6C00024015190008DB
:10178400800002403108000800080140A506000856
:101794004D08000800440040091B0008051C00080F
:1017A4000D1C000815080008ED1B0008FC1D002096
:1017B400044400403D1A00087B1A0008FC25002060
:1017C400951A0008B1180008AD1A0008ED1A0008AF
:1017D400D11B000808B54FF00070044B984700B9BE
:1017E40008BD4FF00070024B9847F9E7C91A00088A
:1017F400ED1A00080D4B1B6FC3F500630C4A1A4425
:101804000C4B1B689A420DD013F8012B0270094A45
:101814001360094A934207D9064BA2F2FF721A6079
:1018240001207047002070470120704700000240EB
:10183400FC1D002024000020FB25002070B50C4670
:101844000B4BD3F88430002BFAD1224601460948C9
:10185400094B9847094D00212846094EB0472146B7
:101864002846084B984701212846B047012070BDFF
:1018740000000240FC2500201D1C000880000240DE
:101884007B1A0008A91A000810B50446044B9847AF
:101894002046044B98470446034B9847204610BD06
:1018A4009505000821060008AD050008C378FBB1C2
:1018B400154BDA68D243C2F30222C2F1040C0F239F
:1018C40023FA02F2417801FA0CF1837813400B43B6
:1018D4001B010278DBB20D490A4482F80033037815
:1018E40003F01F005B090122824041F82320704766
:1018F400037803F01F015B0901228A402033034966
:1019040041F82320704700BF00ED00E000E100E053
:10191400036823F001031B041B0C03600023036012
:1019240043608360C360364B984221D0354B984264
:1019340024D0354B984227D0344B98422AD0344B8C
:1019440098422DD0334B984230D0334B984233D009
:10195400324B984236D0324B984239D0314B984270
:101964003CD0314B98423FD0304B984242D07047E4
:101974002F4A536843F00F03536070472C4A53684F
:1019840043F0F00353607047294A536843F470638B
:1019940053607047264A536843F47043536070475A
:1019A400234A536843F4702353607047204A5368B2
:1019B40043F47003536070471D4A536843F07063E7
:1019C400536070471B4A536843F00F0353607047DA
:1019D400184A536843F0F00353607047154A53683C
:1019E40043F4706353607047124A536843F470437E
:1019F400536070470F4A536843F470235360B6E74B
:101A0400080002401C000240300002404400024032
:101A1400580002406C00024080000240080402406A
:101A24001C040240300402404404024058040240B2
:101A3400000002400004024010B4026822F4FF4295
:101A440022F070028B680C6A23430C6923434C69AF
:101A540023438C692343CC6923434C6A23438C6A14
:101A6400234313430360CB6843600B6883604B6874
:101A7400C36010BC704721B1036843F001030360E5
:101A84007047036823F001031B041B0C03607047B9
:101A94001AB10368194301607047036823EA01011E
:101AA400016070474160704710F0805F02D0034BC3
:101AB40058607047024B5860704700BF00040240F2
:101AC4000000024010F0805F05D0054B1B68034204
:101AD40004D001207047034B1B68F8E700207047CF
:101AE400000402400000024010F0805F02D0034B6B
:101AF40058607047024B5860704700BF00040240B2
:101B04000000024030B587B004460D46038A9BB2FC
:101B1400CA8823F440531343038283899BB2898880
:101B240028896A8901430A4323F4B05323F00C0340
:101B34001343A381A38A9BB2AA8923F4407313435A
:101B4400A38201A81E4B98471E4B9C4224D0039BA2
:101B5400A28912F4004F21D103EB830303EB830327
:101B64002A689200B3FBF2F3174AA2FB031252094C
:101B74001101642002FB1033A28912F4004F16D124
:101B84001B013233104AA2FB0323C3F343130B4359
:101B94009BB2238107B030BD049BD9E703EB8303D9
:101BA40003EB83032A685200B3FBF2F3DCE7DB00A8
:101BB4003233054AA2FB0323C3F342130B43E7E783
:101BC40059070008003801401F85EB5129B183896A
:101BD4009BB243F400538381704783899BB223F4FF
:101BE40000539BB28381704722B1838A9BB219430D
:101BF40081827047838AC94389B2194081827047C0
:101C0400C94389B201807047090A01238B409BB202
:101C1400DB439BB2038070470A44914200F1FF33D7
:101C240000D1704710B511F8014B914203F8014FF0
:101C3400F9D110BD03460244934200D1704703F822
:101C4400011BF9E7F8B500BFF8BC08BC9E46704715
:101C5400F8B500BFF8BC08BC9E467047E502000812
:101C6400320D0A00330D0A0031383A30393A303433
:101C740000000000536570202032203230323400DE
:101C840000000000B71DC1046E3B8209D926430D34
:101C9400DC7604136B6BC517B24D861A0550471ECC
:101CA400B8ED08260FF0C922D6D68A2F61CB4B2B6C
:101CB400649B0C35D386CD310AA08E3CBDBD4F3814
:101CC40070DB114CC7C6D0481EE09345A9FD5241B4
:101CD400ACAD155F1BB0D45BC2969756758B56524C
:101CE400C836196A7F2BD86EA60D9B6311105A67EC
:101CF40014401D79A35DDC7D7A7B9F70CD665E7494
:101D0400E0B6239857ABE29C8E8DA19139906095F3
:101D14003CC0278B8BDDE68F52FBA582E5E664860B
:101D2400585B2BBEEF46EABA3660A9B7817D68B32B
:101D3400842D2FAD3330EEA9EA16ADA45D0B6CA053
:101D4400906D32D42770F3D0FE56B0DD494B71D973
:101D54004C1B36C7FB06F7C32220B4CE953D75CA8B
:101D640028803AF29F9DFBF646BBB8FBF1A679FFAB
:101D7400F4F63EE143EBFFE59ACDBCE82DD07DECD3
:101D840077708634C06D4730194B043DAE56C53963
:101D9400AB0682271C1B4323C53D002E7220C12A9B
:101DA400CF9D8E1278804F16A1A60C1B16BBCD1F9B
:101DB40013EB8A01A4F64B057DD00808CACDC90CE3
:101DC40007AB9778B0B6567C69901571DE8DD475E3
:101DD400DBDD936B6CC0526FB5E6116202FBD0661B
:101DE400BF469F5E085B5E5AD17D1D576660DC531B
:101DF40063309B4DD42D5A490D0B1944BA16D84063
:101E040097C6A5AC20DB64A8F9FD27A54EE0E6A1A2
:101E14004BB0A1BFFCAD60BB258B23B69296E2B25A
:101E24002F2BAD8A98366C8E41102F83F60DEE87DA
:101E3400F35DA9994440689D9D662B902A7BEA94A2
:101E4400E71DB4E0500075E4892636E93E3BF7ED22
:101E54003B6BB0F38C7671F7555032FAE24DF3FEDA
:101E64005FF0BCC6E8ED7DC231CB3ECF86D6FFCB5A
:101E74008386B8D5349B79D1EDBD3ADC5AA0FBD822
:101E8400EEE00C6959FDCD6D80DB8E6037C64F6482
:101E94003296087A858BC97E5CAD8A73EBB04B773A
:101EA400560D044FE110C54B383686468F2B4742FA
:101EB4008A7B005C3D66C158E4408255535D4351C2
:101EC4009E3B1D252926DC21F0009F2C471D5E2802
:101ED400424D1936F550D8322C769B3F9B6B5A3BBA
:101EE40026D6150391CBD40748ED970AFFF0560E7A
:101EF400FAA011104DBDD014949B93192386521D42
:101F04000E562FF1B94BEEF5606DADF8D7706CFC41
:101F1400D2202BE2653DEAE6BC1BA9EB0B0668EF79
:101F2400B6BB27D701A6E6D3D880A5DE6F9D64DAB9
:101F34006ACD23C4DDD0E2C004F6A1CDB3EB60C901
:101F44007E8D3EBDC990FFB910B6BCB4A7AB7DB0C1
:101F5400A2FB3AAE15E6FBAACCC0B8A77BDD79A3F9
:101F6400C660369B717DF79FA85BB4921F46759639
:101F74001A163288AD0BF38C742DB081C330718581
:101F840099908A5D2E8D4B59F7AB085440B6C950D1
:101F940045E68E4EF2FB4F4A2BDD0C479CC0CD43E9
:101FA400217D827B9660437F4F460072F85BC17649
:101FB400FD0B86684A16476C93300461242DC56571
:101FC400E94B9B115E565A1587701918306DD81C51
:101FD400353D9F0282205E065B061D0BEC1BDC0F69
:101FE40051A69337E6BB52333F9D113E8880D03AC9
:101FF4008DD097243ACD5620E3EB152D54F6D429F1
:102004007926A9C5CE3B68C1171D2BCCA000EAC810
:10201400A550ADD6124D6CD2CB6B2FDF7C76EEDBA8
:10202400C1CBA1E376D660E7AFF023EA18EDE2EE88
:102034001DBDA5F0AAA064F4738627F9C49BE6FD30
:1020440009FDB889BEE0798D67C63A80D0DBFB8490
:10205400D58BBC9A62967D9EBBB03E930CADFF9728
:10206400B110B0AF060D71ABDF2B32A66836F3A208
:102074006D66B4BCDA7B75B8035D36B5B440F7B1B0
:1020840025642C25640D0A00310D0A00000021107E
:10209400422063308440A550C660E77008812991CE
:1020A4004AA16BB18CC1ADD1CEE1EFF13112100276
:1020B40073325222B5529442F772D662399318831E
:1020C4007BB35AA3BDD39CC3FFF3DEE36224433442
:1020D40020040114E664C774A44485546AA54BB56E
:1020E40028850995EEE5CFF5ACC58DD55336722616
:1020F40011163006D776F6669556B4465BB77AA7BE
:1021040019973887DFF7FEE79DD7BCC7C448E55861
:102114008668A7784008611802282338CCC9EDD90D
:102124008EE9AFF9488969990AA92BB9F55AD44AB5
:10213400B77A966A711A500A333A122AFDDBDCCB5D
:10214400BFFB9EEB799B588B3BBB1AABA66C877C81
:10215400E44CC55C222C033C600C411CAEED8FFDAD
:10216400ECCDCDDD2AAD0BBD688D499D977EB66E55
:10217400D55EF44E133E322E511E700E9FFFBEEFFD
:10218400DDDFFCCF1BBF3AAF599F788F8891A981BF
:10219400CAB1EBA10CD12DC14EF16FE18010A100A9
:1021A400C230E3200450254046706760B983989399
:1021B400FBA3DAB33DC31CD37FE35EF3B1029012F9
:1021C400F322D2323542145277625672EAB5CBA565
:1021D400A89589856EF54FE52CD50DC5E234C32449
:1021E400A01481046674476424540544DBA7FAB739
:1021F4009987B8975FE77EF71DC73CD7D326F23699
:102204009106B01657667676154634564CD96DC984
:102214000EF92FE9C899E9898AB9ABA944586548E8
:1022240006782768C018E1088238A3287DCB5CDBD8
:102234003FEB1EFBF98BD89BBBAB9ABB754A545A38
:10224400376A167AF10AD01AB32A923A2EFD0FEDA4
:102254006CDD4DCDAABD8BADE89DC98D267C076C88
:10226400645C454CA23C832CE01CC10C1FEF3EFF78
:102274005DCF7CDF9BAFBABFD98FF89F176E367ED8
:10228400554E745E932EB23ED10EF01E3031323371
:102294003435363738394142434445465465726DC6
:1022A400696E616C000000000000000000005454DE
:0C22B400522052454747455300000000EF
:0422C0000902000807
:0422C400E501000828
:1022C80000A24A04020406080000000001020304F8
:1022D80001020304060708096C1C0008010000003D
:0822E800781C0008FC1D002019
:103C0000C82200000000000856422E3030302E300E
:103C100030302E30303041000000000053657020FD
:103C2000203220323032342D31383A30393A303483
:0E3C300000000000000000000000CCCCCCCC56
:04000005080008697E
:00000001FF
