:020000040800F2
:1044000000500020F94A00083D4B00083D4B0008D1
:104410003D4B00083D4B00083D4B000800000000EC
:104420000000000000000000000000003D4B0008FC
:104430003D4B0008000000003D4B00083D4B0008CC
:104440003D4B00083D4B00083D4B00083D4B00082C
:104450003D4B00083D4B00083D4B00083D4B00081C
:104460003D4B00083D4B00083D4B00083D4B00080C
:104470003D4B00083D4B00083D4B00083D4B0008FC
:104480003D4B00083D4B00083D4B00083D4B0008EC
:104490003D4B00083D4B00083D4B00083D4B0008DC
:1044A0003D4B00083D4B00083D4B00083D4B0008CC
:1044B0003D4B00083D4B00083D4B00083D4B0008BC
:1044C0003D4B00083D4B00083D4B00083D4B0008AC
:1044D0003D4B00083D4B00083D4B00083D4B00089C
:1044E0003D4B00083D4B00083D4B00083D4B00088C
:1044F0003D4B00083D4B00083D4B00083D4B00087C
:104500003D4B00083D4B00083D4B00083D4B00086B
:104510003D4B00083D4B00083D4B00083D4B00085B
:104520003D4B00083D4B00083D4B00083D4B00084B
:10453000000000000000000000000000000000007B
:10454000000000000000000000000000000000006B
:10455000000000000000000000000000000000005B
:10456000000000000000000000000000000000004B
:10457000000000000000000000000000000000003B
:10458000000000000000000000000000000000002B
:10459000000000000000000000000000000000001B
:1045A000000000000000000000000000000000000B
:1045B00000000000000000000000000000000000FB
:1045C00000000000000000000000000000000000EB
:1045D00000000000000000000000000000000000DB
:0445E0005FF8E0F1AF
:1045E40010B5054C237833B9044B13B10448AFF329
:1045F40000800123237010BD100000200000000083
:10460400644C000808B5034B1BB103490348AFF3DE
:10461400008008BD0000000014000020644C000865
:1046240008B5034B98470720024B9847FBE700BFA8
:10463400294700089948000838B504464368012012
:104644009847A3680120984723689847E3689847E8
:10465400054658B163680020984723689847E36883
:10466400984728B9A368984723689847284638BDCF
:104674000025FBE710B504468368002098472368AB
:10468400984763680020984723689847A3680120E7
:104694009847236898476368012098472368984798
:1046A40010BD38B5044683680020984723689847AE
:1046B40063680120984723689847A36801209847B6
:1046C40023689847E368984728B90125A368002020
:1046D4009847284638BD0025F8E770B504460D46CE
:1046E40008230CE06368002098476D00EDB223684E
:1046F4009847A368012098472368984733465A1E71
:10470400D6B25BB1A368002098472368984715F098
:10471400800FE7D0636801209847E6E7A36800208C
:10472400984770BD08B5044B98474FF400410348BF
:10473400034B984708BD00BF3D49000800080140ED
:10474400CD4A00082DE9F04180460F460C4C204626
:104754000C4B9847C62120460B4EB04720460B4DC4
:10476400A84741462046B0472046A8473946204638
:10477400B0472046A8472046054B9847BDE8F0813E
:10478400000000203D460008DF460008A746000858
:104794007946000810B519210120064CA0472721AD
:1047A4000220A04700210520A04700210720A047A0
:1047B40010BD00BF4947000810B519210120064C5F
:1047C400A04727210220A04700210520A04700215F
:1047D4000720A04710BD00BF4947000810B51921A4
:1047E4000120064CA04727210220A0473F21052095
:1047F400A04700210720A04710BD00BF494700087B
:1048040010B519210120064CA04727210220A047FA
:104814007F210520A04700210720A04710BD00BF2D
:104824004947000810B519210120064CA04727214B
:104834000220A0477F210520A04701210720A0478F
:1048440010BD00BF4947000810B519210120064CCE
:10485400A04727210220A0477F210520A04703214C
:104864000720A04710BD00BF4947000810B50D211F
:104874000120034CA04700210320A04710BD00BF26
:104884004947000808B50D210120014B984708BD90
:104894004947000808B507281DD8DFE800F00407D9
:1048A4000A0D101316190D4B984708BD0C4B984769
:1048B400FBE70C4B9847F8E70B4B9847F5E70B4B96
:1048C4009847F2E70A4B9847EFE70A4B9847ECE71B
:1048D400094B9847E9E7084B9847E6E799470008EA
:1048E400BD470008E14700080548000829480008BA
:1048F4004D480008714800088948000800EBC000D2
:10490400C0004FF0E023586100229A6105221A6129
:104914004FF0E0231B6913F4803FF9D04FF0E023FC
:1049240004221A617047000008B50A20014B984719
:1049340008BD00BF014900082DE9F04182B0012102
:104944000820194EB047C023ADF8043014238DF865
:10495400073003258DF80650DFF8508001A9404642
:10496400134CA0474023ADF8043010278DF807708E
:104974008DF8065001A94046A04701210420B04704
:104984000C4E4FF4004130460B4B98474FF4004314
:10499400ADF804308DF807708DF8065001A9304643
:1049A400A04702B0BDE8F081DD4A0008000C0140D8
:1049B4000D4A000800080140CD4A000808B5024627
:1049C40080210248024B984708BD00BF000C0140FB
:1049D400D14A000808B5024640210248024B9847D4
:1049E40008BD00BF000C0140D14A000808B5802171
:1049F4000348044B9847003818BF012008BD00BF86
:104A0400000C0140BF4A000830B5CB7803F00F0218
:104A1400964613F0100F03D091F802E04EEA020E0E
:104A24000B7803B30468002301E042610133072BD0
:104A340018D801229A40B1F800C032EA0C05F5D129
:104A44004FEA830C0F2505FA0CF524EA05040EFA47
:104A54000CFC4CEA0404CD78282DE6D0482DE5D191
:104A64000261E3E704600B88FF2B25D94468002327
:104A740003E0CD78482D1CD00133072B1BD803F15C
:104A8400080C012202FA0CF2B1F800C032EA0C055B
:104A9400F2D14FEA830C0F2505FA0CF524EA05043C
:104AA4000EFA0CFC4CEA0404CD78282DE1D14261C5
:104AB400DFE70261E0E7446030BD8368194201D05A
:104AC4000120704700207047016170470AB10161FD
:104AD400704741617047000021B1054A936918434A
:104AE40090617047024A936923EA0000906170471D
:104AF40000100240002103E00A4B5B58435004318C
:104B040009480A4B42189A42F6D3094A02E00023A4
:104B140042F8043B074B9A42F9D300F077F8FFF7C9
:104B24007FFD7047844C0008000000201000002026
:104B3400100000202C000020FEE7000082B00023BB
:104B4400019300932C4A136843F4803313602A4B77
:104B54001B6803F400330093019B01330193009B12
:104B64001BB9019BB3F5A06FF1D1234B1B6813F460
:104B7400003F06D001230093009B012B04D002B018
:104B8400704700230093F7E71C4B1A6842F01002A9
:104B94001A601A6822F007021A601A6842F00202C8
:104BA4001A60A3F580535A685A605A685A605A6862
:104BB40042F480625A605A6822F47C125A605A683D
:104BC40042F4E8125A601A6842F080721A600A4B82
:104BD4001B6813F0007FFAD0074B5A6822F00302D7
:104BE4005A605A6842F002025A60034B5B6803F051
:104BF4000C03082BF9D1C2E7001002400020024048
:104C040008B5014B984708BD414B000808B5104B47
:104C14001A6842F001021A6059680E4A0A405A6042
:104C24001A6822F0847222F480321A601A6822F41C
:104C340080221A605A6822F4FE025A604FF41F025E
:104C44009A60054B9847054B4FF000629A6008BD87
:104C5400001002400000FFF8054C000800ED00E0E1
:104C6400F8B500BFF8BC08BC9E467047F8B500BF55
:084C7400F8BC08BC9E46704725
:044C7C0009460008DD
:044C8000E5450008FE
:104C84002D490008C1490008D9490008F149000824
:0400000508004AF9AC
:00000001FF
